{
  "contractName": "ERC20",
  "abi": [
    {
      "inputs": [],
      "stateMutability": "nonpayable",
      "type": "constructor"
    },
    {
      "anonymous": false,
      "inputs": [
        {
          "indexed": false,
          "internalType": "address",
          "name": "holder",
          "type": "address"
        }
      ],
      "name": "AddedToWhitelist",
      "type": "event"
    },
    {
      "anonymous": false,
      "inputs": [
        {
          "indexed": true,
          "internalType": "address",
          "name": "owner",
          "type": "address"
        },
        {
          "indexed": true,
          "internalType": "address",
          "name": "spender",
          "type": "address"
        },
        {
          "indexed": false,
          "internalType": "uint256",
          "name": "value",
          "type": "uint256"
        }
      ],
      "name": "Approval",
      "type": "event"
    },
    {
      "anonymous": false,
      "inputs": [
        {
          "indexed": false,
          "internalType": "address",
          "name": "from",
          "type": "address"
        },
        {
          "indexed": false,
          "internalType": "uint256",
          "name": "value",
          "type": "uint256"
        }
      ],
      "name": "Burn",
      "type": "event"
    },
    {
      "anonymous": false,
      "inputs": [
        {
          "indexed": true,
          "internalType": "address",
          "name": "oldIssuer",
          "type": "address"
        },
        {
          "indexed": true,
          "internalType": "address",
          "name": "newIssuer",
          "type": "address"
        }
      ],
      "name": "IssuerTransferred",
      "type": "event"
    },
    {
      "anonymous": false,
      "inputs": [
        {
          "indexed": true,
          "internalType": "address",
          "name": "oldRegistrar",
          "type": "address"
        },
        {
          "indexed": true,
          "internalType": "address",
          "name": "newRegistrar",
          "type": "address"
        }
      ],
      "name": "RegistrarTransferred",
      "type": "event"
    },
    {
      "anonymous": false,
      "inputs": [
        {
          "indexed": false,
          "internalType": "address",
          "name": "holder",
          "type": "address"
        }
      ],
      "name": "RemovedFromWhitelist",
      "type": "event"
    },
    {
      "anonymous": false,
      "inputs": [
        {
          "indexed": false,
          "internalType": "address",
          "name": "from",
          "type": "address"
        },
        {
          "indexed": false,
          "internalType": "address",
          "name": "to",
          "type": "address"
        },
        {
          "indexed": false,
          "internalType": "uint256",
          "name": "amount",
          "type": "uint256"
        }
      ],
      "name": "Transfer",
      "type": "event"
    },
    {
      "inputs": [
        {
          "internalType": "address",
          "name": "",
          "type": "address"
        },
        {
          "internalType": "address",
          "name": "",
          "type": "address"
        }
      ],
      "name": "_allowed",
      "outputs": [
        {
          "internalType": "uint256",
          "name": "",
          "type": "uint256"
        }
      ],
      "stateMutability": "view",
      "type": "function"
    },
    {
      "inputs": [
        {
          "internalType": "address",
          "name": "",
          "type": "address"
        }
      ],
      "name": "_balances",
      "outputs": [
        {
          "internalType": "uint256",
          "name": "",
          "type": "uint256"
        }
      ],
      "stateMutability": "view",
      "type": "function"
    },
    {
      "inputs": [],
      "name": "asset",
      "outputs": [
        {
          "internalType": "string",
          "name": "",
          "type": "string"
        }
      ],
      "stateMutability": "view",
      "type": "function"
    },
    {
      "inputs": [],
      "name": "decimals",
      "outputs": [
        {
          "internalType": "uint256",
          "name": "",
          "type": "uint256"
        }
      ],
      "stateMutability": "view",
      "type": "function"
    },
    {
      "inputs": [],
      "name": "issuer",
      "outputs": [
        {
          "internalType": "address",
          "name": "",
          "type": "address"
        }
      ],
      "stateMutability": "view",
      "type": "function"
    },
    {
      "inputs": [],
      "name": "name",
      "outputs": [
        {
          "internalType": "string",
          "name": "",
          "type": "string"
        }
      ],
      "stateMutability": "view",
      "type": "function"
    },
    {
      "inputs": [],
      "name": "paused",
      "outputs": [
        {
          "internalType": "bool",
          "name": "",
          "type": "bool"
        }
      ],
      "stateMutability": "view",
      "type": "function"
    },
    {
      "inputs": [],
      "name": "registrar",
      "outputs": [
        {
          "internalType": "address",
          "name": "",
          "type": "address"
        }
      ],
      "stateMutability": "view",
      "type": "function"
    },
    {
      "inputs": [],
      "name": "totalSupply",
      "outputs": [
        {
          "internalType": "uint256",
          "name": "",
          "type": "uint256"
        }
      ],
      "stateMutability": "view",
      "type": "function"
    },
    {
      "inputs": [
        {
          "internalType": "address",
          "name": "",
          "type": "address"
        }
      ],
      "name": "whitelist",
      "outputs": [
        {
          "internalType": "bool",
          "name": "",
          "type": "bool"
        }
      ],
      "stateMutability": "view",
      "type": "function"
    },
    {
      "inputs": [
        {
          "internalType": "address",
          "name": "_address",
          "type": "address"
        }
      ],
      "name": "checkBalanceforIsuuerorRegisterar",
      "outputs": [
        {
          "internalType": "uint256",
          "name": "",
          "type": "uint256"
        }
      ],
      "stateMutability": "view",
      "type": "function"
    },
    {
      "inputs": [],
      "name": "checkBalance",
      "outputs": [
        {
          "internalType": "uint256",
          "name": "",
          "type": "uint256"
        }
      ],
      "stateMutability": "view",
      "type": "function"
    },
    {
      "inputs": [],
      "name": "pauseContract",
      "outputs": [
        {
          "internalType": "bool",
          "name": "",
          "type": "bool"
        }
      ],
      "stateMutability": "nonpayable",
      "type": "function"
    },
    {
      "inputs": [],
      "name": "unpauseContract",
      "outputs": [
        {
          "internalType": "bool",
          "name": "",
          "type": "bool"
        }
      ],
      "stateMutability": "nonpayable",
      "type": "function"
    },
    {
      "inputs": [],
      "name": "isPaused",
      "outputs": [
        {
          "internalType": "bool",
          "name": "",
          "type": "bool"
        }
      ],
      "stateMutability": "view",
      "type": "function"
    },
    {
      "inputs": [
        {
          "internalType": "address payable",
          "name": "_newIssuer",
          "type": "address"
        }
      ],
      "name": "newIssuer",
      "outputs": [],
      "stateMutability": "nonpayable",
      "type": "function"
    },
    {
      "inputs": [
        {
          "internalType": "address payable",
          "name": "_newRegistrar",
          "type": "address"
        }
      ],
      "name": "newRegistrar",
      "outputs": [],
      "stateMutability": "nonpayable",
      "type": "function"
    },
    {
      "inputs": [
        {
          "internalType": "address",
          "name": "reciever",
          "type": "address"
        }
      ],
      "name": "customerAllowance",
      "outputs": [
        {
          "internalType": "uint256",
          "name": "",
          "type": "uint256"
        }
      ],
      "stateMutability": "view",
      "type": "function"
    },
    {
      "inputs": [
        {
          "internalType": "address",
          "name": "sender",
          "type": "address"
        },
        {
          "internalType": "address",
          "name": "reciever",
          "type": "address"
        },
        {
          "internalType": "uint256",
          "name": "addedValue",
          "type": "uint256"
        }
      ],
      "name": "increaseAllowance",
      "outputs": [
        {
          "internalType": "bool",
          "name": "",
          "type": "bool"
        }
      ],
      "stateMutability": "nonpayable",
      "type": "function"
    },
    {
      "inputs": [
        {
          "internalType": "address",
          "name": "sender",
          "type": "address"
        },
        {
          "internalType": "address",
          "name": "reciever",
          "type": "address"
        },
        {
          "internalType": "uint256",
          "name": "subtractedValue",
          "type": "uint256"
        }
      ],
      "name": "decreaseAllowance",
      "outputs": [
        {
          "internalType": "bool",
          "name": "",
          "type": "bool"
        }
      ],
      "stateMutability": "nonpayable",
      "type": "function"
    },
    {
      "inputs": [
        {
          "internalType": "address",
          "name": "from",
          "type": "address"
        },
        {
          "internalType": "address",
          "name": "to",
          "type": "address"
        }
      ],
      "name": "allowanceOf",
      "outputs": [
        {
          "internalType": "uint256",
          "name": "",
          "type": "uint256"
        }
      ],
      "stateMutability": "view",
      "type": "function"
    },
    {
      "inputs": [
        {
          "internalType": "address",
          "name": "from",
          "type": "address"
        },
        {
          "internalType": "address",
          "name": "to",
          "type": "address"
        },
        {
          "internalType": "uint256",
          "name": "value",
          "type": "uint256"
        }
      ],
      "name": "transferTokenAsIssuer",
      "outputs": [
        {
          "internalType": "bool",
          "name": "",
          "type": "bool"
        }
      ],
      "stateMutability": "nonpayable",
      "type": "function"
    },
    {
      "inputs": [
        {
          "internalType": "address",
          "name": "_to",
          "type": "address"
        },
        {
          "internalType": "uint256",
          "name": "_value",
          "type": "uint256"
        }
      ],
      "name": "transferForCustomer",
      "outputs": [
        {
          "internalType": "bool",
          "name": "",
          "type": "bool"
        }
      ],
      "stateMutability": "nonpayable",
      "type": "function"
    },
    {
      "inputs": [
        {
          "internalType": "uint256",
          "name": "amount",
          "type": "uint256"
        }
      ],
      "name": "burn",
      "outputs": [
        {
          "internalType": "bool",
          "name": "",
          "type": "bool"
        }
      ],
      "stateMutability": "nonpayable",
      "type": "function"
    },
    {
      "inputs": [
        {
          "internalType": "uint256",
          "name": "_token",
          "type": "uint256"
        }
      ],
      "name": "mint",
      "outputs": [
        {
          "internalType": "bool",
          "name": "",
          "type": "bool"
        }
      ],
      "stateMutability": "nonpayable",
      "type": "function"
    },
    {
      "inputs": [
        {
          "internalType": "address",
          "name": "_to",
          "type": "address"
        },
        {
          "internalType": "uint256",
          "name": "_value",
          "type": "uint256"
        }
      ],
      "name": "transferFromIssuer",
      "outputs": [
        {
          "internalType": "bool",
          "name": "success",
          "type": "bool"
        }
      ],
      "stateMutability": "nonpayable",
      "type": "function"
    },
    {
      "inputs": [
        {
          "internalType": "address",
          "name": "verifiedAddress",
          "type": "address"
        }
      ],
      "name": "addToWhitelist",
      "outputs": [
        {
          "internalType": "bool",
          "name": "success",
          "type": "bool"
        }
      ],
      "stateMutability": "nonpayable",
      "type": "function"
    },
    {
      "inputs": [
        {
          "internalType": "address",
          "name": "_customer",
          "type": "address"
        }
      ],
      "name": "removeFromWhitelist",
      "outputs": [
        {
          "internalType": "bool",
          "name": "success",
          "type": "bool"
        }
      ],
      "stateMutability": "nonpayable",
      "type": "function"
    },
    {
      "inputs": [
        {
          "internalType": "address",
          "name": "_address",
          "type": "address"
        }
      ],
      "name": "isWhitelisted",
      "outputs": [
        {
          "internalType": "bool",
          "name": "",
          "type": "bool"
        }
      ],
      "stateMutability": "view",
      "type": "function"
    },
    {
      "inputs": [],
      "name": "kill",
      "outputs": [],
      "stateMutability": "nonpayable",
      "type": "function"
    }
  ],
  "bytecode": "0x60806040526040518060400160405280600981526020017f48444120546f6b656e0000000000000000000000000000000000000000000000815250600090805190602001906200005192919062000432565b506040518060400160405280600c81526020017f5265616c73204573746174650000000000000000000000000000000000000000815250600190805190602001906200009f92919062000432565b5062061a8060025560126003556000600860006101000a81548160ff021916908315150217905550348015620000d457600080fd5b507326cd813fc0693f0b8dc80ea0add164466f6c9592600460006101000a81548173ffffffffffffffffffffffffffffffffffffffff021916908373ffffffffffffffffffffffffffffffffffffffff16021790555073bc3c65d2974cad92f547eccef24b1b50107a0a86600560006101000a81548173ffffffffffffffffffffffffffffffffffffffff021916908373ffffffffffffffffffffffffffffffffffffffff160217905550620001b2600460009054906101000a900473ffffffffffffffffffffffffffffffffffffffff166200027060201b60201c565b50620001e6600560009054906101000a900473ffffffffffffffffffffffffffffffffffffffff166200027060201b60201c565b5060025460066000600460009054906101000a900473ffffffffffffffffffffffffffffffffffffffff1673ffffffffffffffffffffffffffffffffffffffff1673ffffffffffffffffffffffffffffffffffffffff168152602001908152602001600020819055506001600860006101000a81548160ff02191690831515021790555062000646565b6000600460009054906101000a900473ffffffffffffffffffffffffffffffffffffffff1673ffffffffffffffffffffffffffffffffffffffff163373ffffffffffffffffffffffffffffffffffffffff1614806200031c5750600560009054906101000a900473ffffffffffffffffffffffffffffffffffffffff1673ffffffffffffffffffffffffffffffffffffffff163373ffffffffffffffffffffffffffffffffffffffff16145b6200035e576040517f08c379a00000000000000000000000000000000000000000000000000000000081526004016200035590620005ae565b60405180910390fd5b600073ffffffffffffffffffffffffffffffffffffffff168273ffffffffffffffffffffffffffffffffffffffff161415620003d1576040517f08c379a0000000000000000000000000000000000000000000000000000000008152600401620003c8906200058c565b60405180910390fd5b6001600960008473ffffffffffffffffffffffffffffffffffffffff1673ffffffffffffffffffffffffffffffffffffffff16815260200190815260200160002060006101000a81548160ff02191690831515021790555060019050919050565b8280546200044090620005e1565b90600052602060002090601f016020900481019282620004645760008555620004b0565b82601f106200047f57805160ff1916838001178555620004b0565b82800160010185558215620004b0579182015b82811115620004af57825182559160200191906001019062000492565b5b509050620004bf9190620004c3565b5090565b5b80821115620004de576000816000905550600101620004c4565b5090565b6000620004f1601e83620005d0565b91507f76657269666564416464726573732073686f756c642062652076616c696400006000830152602082019050919050565b600062000533602283620005d0565b91507f6f6e6c792076616c696420666f7220697373756572206f72207265676973747260008301527f61720000000000000000000000000000000000000000000000000000000000006020830152604082019050919050565b60006020820190508181036000830152620005a781620004e2565b9050919050565b60006020820190508181036000830152620005c98162000524565b9050919050565b600082825260208201905092915050565b60006002820490506001821680620005fa57607f821691505b6020821081141562000611576200061062000617565b5b50919050565b7f4e487b7100000000000000000000000000000000000000000000000000000000600052602260045260246000fd5b614b4580620006566000396000f3fe608060405234801561001057600080fd5b50600436106101da5760003560e01c80636c43a2ca11610104578063b187bd26116100a2578063c71daccb11610071578063c71daccb146105bd578063d73b1dc9146105db578063e43252d71461060b578063ebf2aa311461063b576101da565b8063b187bd2614610521578063b33712c51461053f578063ba0fb8611461055d578063bde2d8451461058d576101da565b806396769467116100de57806396769467146104615780639b19251a146104915780639c01aa97146104c1578063a0712d68146104f1576101da565b80636c43a2ca146103d15780636ebcf607146104015780638ab1d68114610431576101da565b806338d52e0f1161017c57806342ad10de1161014b57806342ad10de1461035d578063439766ce146103795780634e17cfb4146103975780635c975abb146103b3576101da565b806338d52e0f146102d55780633af32abf146102f357806341c0e1b51461032357806342966c681461032d576101da565b80631d143848116101b85780631d1438481461024b5780632b20e39714610269578063313ce56714610287578063358c4ab8146102a5576101da565b806306fdde03146101df57806318160ddd146101fd5780631a46ec821461021b575b600080fd5b6101e761066b565b6040516101f49190614499565b60405180910390f35b6102056106f9565b60405161021291906148db565b60405180910390f35b61023560048036038101906102309190613917565b6106ff565b60405161024291906148db565b60405180910390f35b61025361094e565b6040516102609190614403565b60405180910390f35b610271610974565b60405161027e9190614403565b60405180910390f35b61028f61099a565b60405161029c91906148db565b60405180910390f35b6102bf60048036038101906102ba91906139a2565b6109a0565b6040516102cc919061447e565b60405180910390f35b6102dd610ece565b6040516102ea9190614499565b60405180910390f35b61030d600480360381019061030891906138c5565b610f5c565b60405161031a919061447e565b60405180910390f35b61032b611021565b005b610347600480360381019061034291906139de565b6110f8565b604051610354919061447e565b60405180910390f35b610377600480360381019061037291906138ee565b6113fd565b005b6103816116dc565b60405161038e919061447e565b60405180910390f35b6103b160048036038101906103ac91906138ee565b611838565b005b6103bb611b17565b6040516103c8919061447e565b60405180910390f35b6103eb60048036038101906103e69190613953565b611b2a565b6040516103f8919061447e565b60405180910390f35b61041b600480360381019061041691906138c5565b611f32565b60405161042891906148db565b60405180910390f35b61044b600480360381019061044691906138c5565b611f4a565b604051610458919061447e565b60405180910390f35b61047b600480360381019061047691906138c5565b612198565b60405161048891906148db565b60405180910390f35b6104ab60048036038101906104a691906138c5565b61231d565b6040516104b8919061447e565b60405180910390f35b6104db60048036038101906104d691906138c5565b61233d565b6040516104e891906148db565b60405180910390f35b61050b600480360381019061050691906139de565b6124de565b604051610518919061447e565b60405180910390f35b6105296126a5565b604051610536919061447e565b60405180910390f35b6105476126bc565b604051610554919061447e565b60405180910390f35b61057760048036038101906105729190613917565b612817565b60405161058491906148db565b60405180910390f35b6105a760048036038101906105a291906139a2565b61283c565b6040516105b4919061447e565b60405180910390f35b6105c5612c01565b6040516105d291906148db565b60405180910390f35b6105f560048036038101906105f09190613953565b612c48565b604051610602919061447e565b60405180910390f35b610625600480360381019061062091906138c5565b613050565b604051610632919061447e565b60405180910390f35b61065560048036038101906106509190613953565b61320b565b604051610662919061447e565b60405180910390f35b6000805461067890614a29565b80601f01602080910402602001604051908101604052809291908181526020018280546106a490614a29565b80156106f15780601f106106c6576101008083540402835291602001916106f1565b820191906000526020600020905b8154815290600101906020018083116106d457829003601f168201915b505050505081565b60025481565b6000600460009054906101000a900473ffffffffffffffffffffffffffffffffffffffff1673ffffffffffffffffffffffffffffffffffffffff163373ffffffffffffffffffffffffffffffffffffffff1614806107aa5750600560009054906101000a900473ffffffffffffffffffffffffffffffffffffffff1673ffffffffffffffffffffffffffffffffffffffff163373ffffffffffffffffffffffffffffffffffffffff16145b6107e9576040517f08c379a00000000000000000000000000000000000000000000000000000000081526004016107e09061467b565b60405180910390fd5b600073ffffffffffffffffffffffffffffffffffffffff168373ffffffffffffffffffffffffffffffffffffffff161415610859576040517f08c379a00000000000000000000000000000000000000000000000000000000081526004016108509061485b565b60405180910390fd5b600073ffffffffffffffffffffffffffffffffffffffff168273ffffffffffffffffffffffffffffffffffffffff1614156108c9576040517f08c379a00000000000000000000000000000000000000000000000000000000081526004016108c0906147fb565b60405180910390fd5b600760008473ffffffffffffffffffffffffffffffffffffffff1673ffffffffffffffffffffffffffffffffffffffff16815260200190815260200160002060008373ffffffffffffffffffffffffffffffffffffffff1673ffffffffffffffffffffffffffffffffffffffff16815260200190815260200160002054905092915050565b600460009054906101000a900473ffffffffffffffffffffffffffffffffffffffff1681565b600560009054906101000a900473ffffffffffffffffffffffffffffffffffffffff1681565b60035481565b60008073ffffffffffffffffffffffffffffffffffffffff168373ffffffffffffffffffffffffffffffffffffffff1614156109db57600080fd5b60008211610a1e576040517f08c379a0000000000000000000000000000000000000000000000000000000008152600401610a159061465b565b60405180910390fd5b600860009054906101000a900460ff1615610a6e576040517f08c379a0000000000000000000000000000000000000000000000000000000008152600401610a659061475b565b60405180910390fd5b610a7733610f5c565b610ab6576040517f08c379a0000000000000000000000000000000000000000000000000000000008152600401610aad906144db565b60405180910390fd5b600660003373ffffffffffffffffffffffffffffffffffffffff1673ffffffffffffffffffffffffffffffffffffffff16815260200190815260200160002054821115610b38576040517f08c379a0000000000000000000000000000000000000000000000000000000008152600401610b2f9061459b565b60405180910390fd5b610b4183610f5c565b610b80576040517f08c379a0000000000000000000000000000000000000000000000000000000008152600401610b77906146db565b60405180910390fd5b600254821115610bc5576040517f08c379a0000000000000000000000000000000000000000000000000000000008152600401610bbc9061471b565b60405180910390fd5b60066000600460009054906101000a900473ffffffffffffffffffffffffffffffffffffffff1673ffffffffffffffffffffffffffffffffffffffff1673ffffffffffffffffffffffffffffffffffffffff16815260200190815260200160002054821115610c69576040517f08c379a0000000000000000000000000000000000000000000000000000000008152600401610c609061461b565b60405180910390fd5b81600660008573ffffffffffffffffffffffffffffffffffffffff1673ffffffffffffffffffffffffffffffffffffffff1681526020019081526020016000206000828254610cb89190614912565b9250508190555081600660003373ffffffffffffffffffffffffffffffffffffffff1673ffffffffffffffffffffffffffffffffffffffff1681526020019081526020016000206000828254610d0e9190614968565b925050819055506000600760003373ffffffffffffffffffffffffffffffffffffffff1673ffffffffffffffffffffffffffffffffffffffff16815260200190815260200160002060008573ffffffffffffffffffffffffffffffffffffffff1673ffffffffffffffffffffffffffffffffffffffff1681526020019081526020016000205411610dd4576040517f08c379a0000000000000000000000000000000000000000000000000000000008152600401610dcb906146bb565b60405180910390fd5b81600760003373ffffffffffffffffffffffffffffffffffffffff1673ffffffffffffffffffffffffffffffffffffffff16815260200190815260200160002060008573ffffffffffffffffffffffffffffffffffffffff1673ffffffffffffffffffffffffffffffffffffffff1681526020019081526020016000206000828254610e609190614968565b925050819055507fddf252ad1be2c89b69c2b068fc378daa952ba7f163c4a11628f55a4df523b3ef600460009054906101000a900473ffffffffffffffffffffffffffffffffffffffff168484604051610ebc9392919061441e565b60405180910390a16001905092915050565b60018054610edb90614a29565b80601f0160208091040260200160405190810160405280929190818152602001828054610f0790614a29565b8015610f545780601f10610f2957610100808354040283529160200191610f54565b820191906000526020600020905b815481529060010190602001808311610f3757829003601f168201915b505050505081565b60008073ffffffffffffffffffffffffffffffffffffffff168273ffffffffffffffffffffffffffffffffffffffff161415610fcd576040517f08c379a0000000000000000000000000000000000000000000000000000000008152600401610fc49061477b565b60405180910390fd5b600960008373ffffffffffffffffffffffffffffffffffffffff1673ffffffffffffffffffffffffffffffffffffffff16815260200190815260200160002060009054906101000a900460ff169050919050565b600460009054906101000a900473ffffffffffffffffffffffffffffffffffffffff1673ffffffffffffffffffffffffffffffffffffffff163373ffffffffffffffffffffffffffffffffffffffff16146110b1576040517f08c379a00000000000000000000000000000000000000000000000000000000081526004016110a8906145fb565b60405180910390fd5b6110bc6002546110f8565b50600460009054906101000a900473ffffffffffffffffffffffffffffffffffffffff1673ffffffffffffffffffffffffffffffffffffffff16ff5b6000600460009054906101000a900473ffffffffffffffffffffffffffffffffffffffff1673ffffffffffffffffffffffffffffffffffffffff163373ffffffffffffffffffffffffffffffffffffffff1614806111a35750600560009054906101000a900473ffffffffffffffffffffffffffffffffffffffff1673ffffffffffffffffffffffffffffffffffffffff163373ffffffffffffffffffffffffffffffffffffffff16145b6111e2576040517f08c379a00000000000000000000000000000000000000000000000000000000081526004016111d99061467b565b60405180910390fd5b60008211611225576040517f08c379a000000000000000000000000000000000000000000000000000000000815260040161121c9061469b565b60405180910390fd5b60066000600460009054906101000a900473ffffffffffffffffffffffffffffffffffffffff1673ffffffffffffffffffffffffffffffffffffffff1673ffffffffffffffffffffffffffffffffffffffff168152602001908152602001600020548211156112c9576040517f08c379a00000000000000000000000000000000000000000000000000000000081526004016112c09061487b565b60405180910390fd5b81600260008282546112db9190614968565b925050819055506113568260066000600460009054906101000a900473ffffffffffffffffffffffffffffffffffffffff1673ffffffffffffffffffffffffffffffffffffffff1673ffffffffffffffffffffffffffffffffffffffff1681526020019081526020016000205461385a90919063ffffffff16565b60066000600460009054906101000a900473ffffffffffffffffffffffffffffffffffffffff1673ffffffffffffffffffffffffffffffffffffffff1673ffffffffffffffffffffffffffffffffffffffff168152602001908152602001600020819055507fcc16f5dbb4873280815c1ee09dbd06736cffcc184412cf7a71a0fdb75d397ca533836040516113ec929190614455565b60405180910390a160019050919050565b600460009054906101000a900473ffffffffffffffffffffffffffffffffffffffff1673ffffffffffffffffffffffffffffffffffffffff163373ffffffffffffffffffffffffffffffffffffffff1614806114a65750600560009054906101000a900473ffffffffffffffffffffffffffffffffffffffff1673ffffffffffffffffffffffffffffffffffffffff163373ffffffffffffffffffffffffffffffffffffffff16145b6114e5576040517f08c379a00000000000000000000000000000000000000000000000000000000081526004016114dc9061467b565b60405180910390fd5b600073ffffffffffffffffffffffffffffffffffffffff168173ffffffffffffffffffffffffffffffffffffffff161415611555576040517f08c379a000000000000000000000000000000000000000000000000000000000815260040161154c906147db565b60405180910390fd5b600460009054906101000a900473ffffffffffffffffffffffffffffffffffffffff1673ffffffffffffffffffffffffffffffffffffffff168173ffffffffffffffffffffffffffffffffffffffff1614156115e6576040517f08c379a00000000000000000000000000000000000000000000000000000000081526004016115dd906144bb565b60405180910390fd5b611611600460009054906101000a900473ffffffffffffffffffffffffffffffffffffffff16611f4a565b5080600460006101000a81548173ffffffffffffffffffffffffffffffffffffffff021916908373ffffffffffffffffffffffffffffffffffffffff1602179055508073ffffffffffffffffffffffffffffffffffffffff16600460009054906101000a900473ffffffffffffffffffffffffffffffffffffffff1673ffffffffffffffffffffffffffffffffffffffff167fd7850b647d2d788d7d51865cb8181f56b7ee1fbab1a965018c2168bc9b2025cd60405160405180910390a36116d881613050565b5050565b6000600460009054906101000a900473ffffffffffffffffffffffffffffffffffffffff1673ffffffffffffffffffffffffffffffffffffffff163373ffffffffffffffffffffffffffffffffffffffff1614806117875750600560009054906101000a900473ffffffffffffffffffffffffffffffffffffffff1673ffffffffffffffffffffffffffffffffffffffff163373ffffffffffffffffffffffffffffffffffffffff16145b6117c6576040517f08c379a00000000000000000000000000000000000000000000000000000000081526004016117bd9061467b565b60405180910390fd5b600860009054906101000a900460ff1615611816576040517f08c379a000000000000000000000000000000000000000000000000000000000815260040161180d906144fb565b60405180910390fd5b6001600860006101000a81548160ff0219169083151502179055506001905090565b600460009054906101000a900473ffffffffffffffffffffffffffffffffffffffff1673ffffffffffffffffffffffffffffffffffffffff163373ffffffffffffffffffffffffffffffffffffffff1614806118e15750600560009054906101000a900473ffffffffffffffffffffffffffffffffffffffff1673ffffffffffffffffffffffffffffffffffffffff163373ffffffffffffffffffffffffffffffffffffffff16145b611920576040517f08c379a00000000000000000000000000000000000000000000000000000000081526004016119179061467b565b60405180910390fd5b600073ffffffffffffffffffffffffffffffffffffffff168173ffffffffffffffffffffffffffffffffffffffff161415611990576040517f08c379a00000000000000000000000000000000000000000000000000000000081526004016119879061455b565b60405180910390fd5b600560009054906101000a900473ffffffffffffffffffffffffffffffffffffffff1673ffffffffffffffffffffffffffffffffffffffff168173ffffffffffffffffffffffffffffffffffffffff161415611a21576040517f08c379a0000000000000000000000000000000000000000000000000000000008152600401611a189061453b565b60405180910390fd5b611a4c600560009054906101000a900473ffffffffffffffffffffffffffffffffffffffff16611f4a565b508073ffffffffffffffffffffffffffffffffffffffff16600560009054906101000a900473ffffffffffffffffffffffffffffffffffffffff1673ffffffffffffffffffffffffffffffffffffffff167fed6f22d50c794502c2d865198855205c3c33e21f8cc727a7e442131dcfae88aa60405160405180910390a380600560006101000a81548173ffffffffffffffffffffffffffffffffffffffff021916908373ffffffffffffffffffffffffffffffffffffffff160217905550611b1381613050565b5050565b600860009054906101000a900460ff1681565b6000600460009054906101000a900473ffffffffffffffffffffffffffffffffffffffff1673ffffffffffffffffffffffffffffffffffffffff163373ffffffffffffffffffffffffffffffffffffffff161480611bd55750600560009054906101000a900473ffffffffffffffffffffffffffffffffffffffff1673ffffffffffffffffffffffffffffffffffffffff163373ffffffffffffffffffffffffffffffffffffffff16145b611c14576040517f08c379a0000000000000000000000000000000000000000000000000000000008152600401611c0b9061467b565b60405180910390fd5b600073ffffffffffffffffffffffffffffffffffffffff168473ffffffffffffffffffffffffffffffffffffffff161415611c84576040517f08c379a0000000000000000000000000000000000000000000000000000000008152600401611c7b9061473b565b60405180910390fd5b600073ffffffffffffffffffffffffffffffffffffffff168373ffffffffffffffffffffffffffffffffffffffff161415611cf4576040517f08c379a0000000000000000000000000000000000000000000000000000000008152600401611ceb9061463b565b60405180910390fd5b60008211611d37576040517f08c379a0000000000000000000000000000000000000000000000000000000008152600401611d2e906148bb565b60405180910390fd5b611dc682600760008773ffffffffffffffffffffffffffffffffffffffff1673ffffffffffffffffffffffffffffffffffffffff16815260200190815260200160002060008673ffffffffffffffffffffffffffffffffffffffff1673ffffffffffffffffffffffffffffffffffffffff1681526020019081526020016000205461387090919063ffffffff16565b600760008673ffffffffffffffffffffffffffffffffffffffff1673ffffffffffffffffffffffffffffffffffffffff16815260200190815260200160002060008573ffffffffffffffffffffffffffffffffffffffff1673ffffffffffffffffffffffffffffffffffffffff168152602001908152602001600020819055508273ffffffffffffffffffffffffffffffffffffffff168473ffffffffffffffffffffffffffffffffffffffff167f8c5be1e5ebec7d5bd14f71427d1e84f3dd0314c0f7b2291e5b200ac8c7c3b925600760008873ffffffffffffffffffffffffffffffffffffffff1673ffffffffffffffffffffffffffffffffffffffff16815260200190815260200160002060008773ffffffffffffffffffffffffffffffffffffffff1673ffffffffffffffffffffffffffffffffffffffff16815260200190815260200160002054604051611f1f91906148db565b60405180910390a3600190509392505050565b60066020528060005260406000206000915090505481565b6000600460009054906101000a900473ffffffffffffffffffffffffffffffffffffffff1673ffffffffffffffffffffffffffffffffffffffff163373ffffffffffffffffffffffffffffffffffffffff161480611ff55750600560009054906101000a900473ffffffffffffffffffffffffffffffffffffffff1673ffffffffffffffffffffffffffffffffffffffff163373ffffffffffffffffffffffffffffffffffffffff16145b612034576040517f08c379a000000000000000000000000000000000000000000000000000000000815260040161202b9061467b565b60405180910390fd5b600073ffffffffffffffffffffffffffffffffffffffff168273ffffffffffffffffffffffffffffffffffffffff1614156120a4576040517f08c379a000000000000000000000000000000000000000000000000000000000815260040161209b9061483b565b60405180910390fd5b60011515600960008473ffffffffffffffffffffffffffffffffffffffff1673ffffffffffffffffffffffffffffffffffffffff16815260200190815260200160002060009054906101000a900460ff16151514612137576040517f08c379a000000000000000000000000000000000000000000000000000000000815260040161212e906147bb565b60405180910390fd5b6000600960008473ffffffffffffffffffffffffffffffffffffffff1673ffffffffffffffffffffffffffffffffffffffff16815260200190815260200160002060006101000a81548160ff02191690831515021790555060019050919050565b60008073ffffffffffffffffffffffffffffffffffffffff168273ffffffffffffffffffffffffffffffffffffffff161415612209576040517f08c379a00000000000000000000000000000000000000000000000000000000081526004016122009061455b565b60405180910390fd5b61221233610f5c565b612251576040517f08c379a0000000000000000000000000000000000000000000000000000000008152600401612248906146fb565b60405180910390fd5b61225a82610f5c565b612299576040517f08c379a0000000000000000000000000000000000000000000000000000000008152600401612290906146db565b60405180910390fd5b600760003373ffffffffffffffffffffffffffffffffffffffff1673ffffffffffffffffffffffffffffffffffffffff16815260200190815260200160002060008373ffffffffffffffffffffffffffffffffffffffff1673ffffffffffffffffffffffffffffffffffffffff168152602001908152602001600020549050919050565b60096020528060005260406000206000915054906101000a900460ff1681565b6000600460009054906101000a900473ffffffffffffffffffffffffffffffffffffffff1673ffffffffffffffffffffffffffffffffffffffff163373ffffffffffffffffffffffffffffffffffffffff1614806123e85750600560009054906101000a900473ffffffffffffffffffffffffffffffffffffffff1673ffffffffffffffffffffffffffffffffffffffff163373ffffffffffffffffffffffffffffffffffffffff16145b612427576040517f08c379a000000000000000000000000000000000000000000000000000000000815260040161241e9061467b565b60405180910390fd5b600073ffffffffffffffffffffffffffffffffffffffff168273ffffffffffffffffffffffffffffffffffffffff161415612497576040517f08c379a000000000000000000000000000000000000000000000000000000000815260040161248e9061489b565b60405180910390fd5b600660008373ffffffffffffffffffffffffffffffffffffffff1673ffffffffffffffffffffffffffffffffffffffff168152602001908152602001600020549050919050565b6000600460009054906101000a900473ffffffffffffffffffffffffffffffffffffffff1673ffffffffffffffffffffffffffffffffffffffff163373ffffffffffffffffffffffffffffffffffffffff1614806125895750600560009054906101000a900473ffffffffffffffffffffffffffffffffffffffff1673ffffffffffffffffffffffffffffffffffffffff163373ffffffffffffffffffffffffffffffffffffffff16145b6125c8576040517f08c379a00000000000000000000000000000000000000000000000000000000081526004016125bf9061467b565b60405180910390fd5b6000821161260b576040517f08c379a00000000000000000000000000000000000000000000000000000000081526004016126029061451b565b60405180910390fd5b816002600082825461261d9190614912565b925050819055508160066000600460009054906101000a900473ffffffffffffffffffffffffffffffffffffffff1673ffffffffffffffffffffffffffffffffffffffff1673ffffffffffffffffffffffffffffffffffffffff16815260200190815260200160002060008282546126959190614912565b9250508190555060019050919050565b6000600860009054906101000a900460ff16905090565b6000600460009054906101000a900473ffffffffffffffffffffffffffffffffffffffff1673ffffffffffffffffffffffffffffffffffffffff163373ffffffffffffffffffffffffffffffffffffffff1614806127675750600560009054906101000a900473ffffffffffffffffffffffffffffffffffffffff1673ffffffffffffffffffffffffffffffffffffffff163373ffffffffffffffffffffffffffffffffffffffff16145b6127a6576040517f08c379a000000000000000000000000000000000000000000000000000000000815260040161279d9061467b565b60405180910390fd5b600860009054906101000a900460ff166127f5576040517f08c379a00000000000000000000000000000000000000000000000000000000081526004016127ec906145bb565b60405180910390fd5b6000600860006101000a81548160ff0219169083151502179055506001905090565b6007602052816000526040600020602052806000526040600020600091509150505481565b6000600460009054906101000a900473ffffffffffffffffffffffffffffffffffffffff1673ffffffffffffffffffffffffffffffffffffffff163373ffffffffffffffffffffffffffffffffffffffff16146128ce576040517f08c379a00000000000000000000000000000000000000000000000000000000081526004016128c5906145fb565b60405180910390fd5b600073ffffffffffffffffffffffffffffffffffffffff168373ffffffffffffffffffffffffffffffffffffffff16141561290857600080fd5b6000821161294b576040517f08c379a00000000000000000000000000000000000000000000000000000000081526004016129429061465b565b60405180910390fd5b600860009054906101000a900460ff161561299b576040517f08c379a00000000000000000000000000000000000000000000000000000000081526004016129929061475b565b60405180910390fd5b6129a483610f5c565b6129e3576040517f08c379a00000000000000000000000000000000000000000000000000000000081526004016129da906146db565b60405180910390fd5b600254821115612a28576040517f08c379a0000000000000000000000000000000000000000000000000000000008152600401612a1f9061471b565b60405180910390fd5b60066000600460009054906101000a900473ffffffffffffffffffffffffffffffffffffffff1673ffffffffffffffffffffffffffffffffffffffff1673ffffffffffffffffffffffffffffffffffffffff16815260200190815260200160002054821115612acc576040517f08c379a0000000000000000000000000000000000000000000000000000000008152600401612ac39061461b565b60405180910390fd5b81600660008573ffffffffffffffffffffffffffffffffffffffff1673ffffffffffffffffffffffffffffffffffffffff1681526020019081526020016000206000828254612b1b9190614912565b925050819055508160066000600460009054906101000a900473ffffffffffffffffffffffffffffffffffffffff1673ffffffffffffffffffffffffffffffffffffffff1673ffffffffffffffffffffffffffffffffffffffff1681526020019081526020016000206000828254612b939190614968565b925050819055507fddf252ad1be2c89b69c2b068fc378daa952ba7f163c4a11628f55a4df523b3ef600460009054906101000a900473ffffffffffffffffffffffffffffffffffffffff168484604051612bef9392919061441e565b60405180910390a16001905092915050565b6000600660003373ffffffffffffffffffffffffffffffffffffffff1673ffffffffffffffffffffffffffffffffffffffff16815260200190815260200160002054905090565b6000600460009054906101000a900473ffffffffffffffffffffffffffffffffffffffff1673ffffffffffffffffffffffffffffffffffffffff163373ffffffffffffffffffffffffffffffffffffffff161480612cf35750600560009054906101000a900473ffffffffffffffffffffffffffffffffffffffff1673ffffffffffffffffffffffffffffffffffffffff163373ffffffffffffffffffffffffffffffffffffffff16145b612d32576040517f08c379a0000000000000000000000000000000000000000000000000000000008152600401612d299061467b565b60405180910390fd5b600073ffffffffffffffffffffffffffffffffffffffff168473ffffffffffffffffffffffffffffffffffffffff161415612da2576040517f08c379a0000000000000000000000000000000000000000000000000000000008152600401612d999061473b565b60405180910390fd5b600073ffffffffffffffffffffffffffffffffffffffff168373ffffffffffffffffffffffffffffffffffffffff161415612e12576040517f08c379a0000000000000000000000000000000000000000000000000000000008152600401612e099061463b565b60405180910390fd5b60008211612e55576040517f08c379a0000000000000000000000000000000000000000000000000000000008152600401612e4c9061481b565b60405180910390fd5b612ee482600760008773ffffffffffffffffffffffffffffffffffffffff1673ffffffffffffffffffffffffffffffffffffffff16815260200190815260200160002060008673ffffffffffffffffffffffffffffffffffffffff1673ffffffffffffffffffffffffffffffffffffffff1681526020019081526020016000205461385a90919063ffffffff16565b600760008673ffffffffffffffffffffffffffffffffffffffff1673ffffffffffffffffffffffffffffffffffffffff16815260200190815260200160002060008573ffffffffffffffffffffffffffffffffffffffff1673ffffffffffffffffffffffffffffffffffffffff168152602001908152602001600020819055508273ffffffffffffffffffffffffffffffffffffffff168473ffffffffffffffffffffffffffffffffffffffff167f8c5be1e5ebec7d5bd14f71427d1e84f3dd0314c0f7b2291e5b200ac8c7c3b925600760008873ffffffffffffffffffffffffffffffffffffffff1673ffffffffffffffffffffffffffffffffffffffff16815260200190815260200160002060008773ffffffffffffffffffffffffffffffffffffffff1673ffffffffffffffffffffffffffffffffffffffff1681526020019081526020016000205460405161303d91906148db565b60405180910390a3600190509392505050565b6000600460009054906101000a900473ffffffffffffffffffffffffffffffffffffffff1673ffffffffffffffffffffffffffffffffffffffff163373ffffffffffffffffffffffffffffffffffffffff1614806130fb5750600560009054906101000a900473ffffffffffffffffffffffffffffffffffffffff1673ffffffffffffffffffffffffffffffffffffffff163373ffffffffffffffffffffffffffffffffffffffff16145b61313a576040517f08c379a00000000000000000000000000000000000000000000000000000000081526004016131319061467b565b60405180910390fd5b600073ffffffffffffffffffffffffffffffffffffffff168273ffffffffffffffffffffffffffffffffffffffff1614156131aa576040517f08c379a00000000000000000000000000000000000000000000000000000000081526004016131a19061457b565b60405180910390fd5b6001600960008473ffffffffffffffffffffffffffffffffffffffff1673ffffffffffffffffffffffffffffffffffffffff16815260200190815260200160002060006101000a81548160ff02191690831515021790555060019050919050565b6000600460009054906101000a900473ffffffffffffffffffffffffffffffffffffffff1673ffffffffffffffffffffffffffffffffffffffff163373ffffffffffffffffffffffffffffffffffffffff1614806132b65750600560009054906101000a900473ffffffffffffffffffffffffffffffffffffffff1673ffffffffffffffffffffffffffffffffffffffff163373ffffffffffffffffffffffffffffffffffffffff16145b6132f5576040517f08c379a00000000000000000000000000000000000000000000000000000000081526004016132ec9061467b565b60405180910390fd5b60008211613338576040517f08c379a000000000000000000000000000000000000000000000000000000000815260040161332f906145db565b60405180910390fd5b600660008573ffffffffffffffffffffffffffffffffffffffff1673ffffffffffffffffffffffffffffffffffffffff1681526020019081526020016000205482111561338457600080fd5b600760008573ffffffffffffffffffffffffffffffffffffffff1673ffffffffffffffffffffffffffffffffffffffff16815260200190815260200160002060008473ffffffffffffffffffffffffffffffffffffffff1673ffffffffffffffffffffffffffffffffffffffff1681526020019081526020016000205482111561340d57600080fd5b600073ffffffffffffffffffffffffffffffffffffffff168373ffffffffffffffffffffffffffffffffffffffff16141561344757600080fd5b61345084610f5c565b61348f576040517f08c379a0000000000000000000000000000000000000000000000000000000008152600401613486906146fb565b60405180910390fd5b61349883610f5c565b6134d7576040517f08c379a00000000000000000000000000000000000000000000000000000000081526004016134ce906146db565b60405180910390fd5b60025482111561351c576040517f08c379a00000000000000000000000000000000000000000000000000000000081526004016135139061479b565b60405180910390fd5b61356e82600660008773ffffffffffffffffffffffffffffffffffffffff1673ffffffffffffffffffffffffffffffffffffffff1681526020019081526020016000205461385a90919063ffffffff16565b600660008673ffffffffffffffffffffffffffffffffffffffff1673ffffffffffffffffffffffffffffffffffffffff1681526020019081526020016000208190555061360382600660008673ffffffffffffffffffffffffffffffffffffffff1673ffffffffffffffffffffffffffffffffffffffff1681526020019081526020016000205461387090919063ffffffff16565b600660008573ffffffffffffffffffffffffffffffffffffffff1673ffffffffffffffffffffffffffffffffffffffff168152602001908152602001600020819055506000600760008673ffffffffffffffffffffffffffffffffffffffff1673ffffffffffffffffffffffffffffffffffffffff16815260200190815260200160002060008573ffffffffffffffffffffffffffffffffffffffff1673ffffffffffffffffffffffffffffffffffffffff1681526020019081526020016000205411613705576040517f08c379a00000000000000000000000000000000000000000000000000000000081526004016136fc906146bb565b60405180910390fd5b61379482600760008773ffffffffffffffffffffffffffffffffffffffff1673ffffffffffffffffffffffffffffffffffffffff16815260200190815260200160002060008673ffffffffffffffffffffffffffffffffffffffff1673ffffffffffffffffffffffffffffffffffffffff1681526020019081526020016000205461385a90919063ffffffff16565b600760008673ffffffffffffffffffffffffffffffffffffffff1673ffffffffffffffffffffffffffffffffffffffff16815260200190815260200160002060008573ffffffffffffffffffffffffffffffffffffffff1673ffffffffffffffffffffffffffffffffffffffff168152602001908152602001600020819055507fddf252ad1be2c89b69c2b068fc378daa952ba7f163c4a11628f55a4df523b3ef8484846040516138479392919061441e565b60405180910390a1600190509392505050565b600081836138689190614968565b905092915050565b6000818361387e9190614912565b905092915050565b60008135905061389581614aca565b92915050565b6000813590506138aa81614ae1565b92915050565b6000813590506138bf81614af8565b92915050565b6000602082840312156138d757600080fd5b60006138e584828501613886565b91505092915050565b60006020828403121561390057600080fd5b600061390e8482850161389b565b91505092915050565b6000806040838503121561392a57600080fd5b600061393885828601613886565b925050602061394985828601613886565b9150509250929050565b60008060006060848603121561396857600080fd5b600061397686828701613886565b935050602061398786828701613886565b9250506040613998868287016138b0565b9150509250925092565b600080604083850312156139b557600080fd5b60006139c385828601613886565b92505060206139d4858286016138b0565b9150509250929050565b6000602082840312156139f057600080fd5b60006139fe848285016138b0565b91505092915050565b613a108161499c565b82525050565b613a1f816149c0565b82525050565b6000613a30826148f6565b613a3a8185614901565b9350613a4a8185602086016149f6565b613a5381614ab9565b840191505092915050565b6000613a6b602c83614901565b91507f4e657720697373756572206164647265737320616e642069737375657220736860008301527f6f756c642062652073616d6500000000000000000000000000000000000000006020830152604082019050919050565b6000613ad1603583614901565b91507f53656e646572206e6565647320746f2062652077686974656c6973746564206260008301527f7920726567697374726172206f722069737375657200000000000000000000006020830152604082019050919050565b6000613b37601983614901565b91507f436f6e747261637420616c7265616479207061757365642021000000000000006000830152602082019050919050565b6000613b77601383614901565b91507f746f6b656e3a2073686f756c642076616c6964000000000000000000000000006000830152602082019050919050565b6000613bb7601783614901565b91507f53686f756c64206265206e6577205265676973747261720000000000000000006000830152602082019050919050565b6000613bf7601783614901565b91507f416464726573732073686f756c642062652076616c69640000000000000000006000830152602082019050919050565b6000613c37601e83614901565b91507f76657269666564416464726573732073686f756c642062652076616c696400006000830152602082019050919050565b6000613c77601983614901565b91507f42616c616e63652073686f756c642062652067726561746572000000000000006000830152602082019050919050565b6000613cb7601b83614901565b91507f436f6e747261637420616c726561647920756e706175736564202100000000006000830152602082019050919050565b6000613cf7601783614901565b91507f56616c7565203a20696e636f72726563742076616c75650000000000000000006000830152602082019050919050565b6000613d37601583614901565b91507f6f6e6c792076616c696420666f722069737375657200000000000000000000006000830152602082019050919050565b6000613d77601283614901565b91507f6e6f7420656e6f7567682062616c616e636500000000000000000000000000006000830152602082019050919050565b6000613db7601a83614901565b91507f72656369657665723a2020696e636f727265637420696e7075740000000000006000830152602082019050919050565b6000613df7601883614901565b91507f5f76616c7565203a2073686f756c642062652076616c696400000000000000006000830152602082019050919050565b6000613e37602283614901565b91507f6f6e6c792076616c696420666f7220697373756572206f72207265676973747260008301527f61720000000000000000000000000000000000000000000000000000000000006020830152604082019050919050565b6000613e9d601883614901565b91507f616d6f756e74203a2073686f756c642062652076616c696400000000000000006000830152602082019050919050565b6000613edd601883614901565b91507f616c6c6f77616e6365206973206e6f7420646566696e656400000000000000006000830152602082019050919050565b6000613f1d603783614901565b91507f5265636965766572206e6565647320746f2062652077686974656c697374656460008301527f20627920726567697374726172206f72206973737565720000000000000000006020830152604082019050919050565b6000613f83603583614901565b91507f486f6c646572206e6565647320746f2062652077686974656c6973746564206260008301527f7920726567697374726172206f722069737375657200000000000000000000006020830152604082019050919050565b6000613fe9601383614901565b91507f6f766572666c6f772070726f74656374696f6e000000000000000000000000006000830152602082019050919050565b6000614029601883614901565b91507f73656e6465723a2020696e636f727265637420696e70757400000000000000006000830152602082019050919050565b6000614069601983614901565b91507f7075626c6963207472616e7366657220697320706175736564000000000000006000830152602082019050919050565b60006140a9602283614901565b91507f5f61646472657373203a20616464726573732073686f756c642062652076616c60008301527f69640000000000000000000000000000000000000000000000000000000000006020830152604082019050919050565b600061410f601d83614901565b91507f56616c756520626967676572207468616e20546f74616c737570706c790000006000830152602082019050919050565b600061414f602083614901565b91507f41646472657373206973206e6f7420696e20796f75722077686974656c6973746000830152602082019050919050565b600061418f601c83614901565b91507f4973737565722063616e2774206265204e756c6c2061646472657373000000006000830152602082019050919050565b60006141cf601c83614901565b91507f746f203a20616464726573732073686f756c642062652076616c6964000000006000830152602082019050919050565b600061420f602283614901565b91507f207375627472616374656456616c7565203a20696e636f727265637420696e7060008301527f75740000000000000000000000000000000000000000000000000000000000006020830152604082019050919050565b6000614275602383614901565b91507f5f637573746f6d6572203a20616464726573732073686f756c6420626520766160008301527f6c696400000000000000000000000000000000000000000000000000000000006020830152604082019050919050565b60006142db601e83614901565b91507f66726f6d203a20616464726573732073686f756c642062652076616c696400006000830152602082019050919050565b600061431b602b83614901565b91507f6e6f7420656e6f7567682062616c616e636520696e206973737565722077616c60008301527f6c657420746f206275726e0000000000000000000000000000000000000000006020830152604082019050919050565b6000614381600c83614901565b91507f4e756c6c204164647265737300000000000000000000000000000000000000006000830152602082019050919050565b60006143c1601c83614901565b91507f616464656456616c7565203a20696e636f727265637420696e707574000000006000830152602082019050919050565b6143fd816149ec565b82525050565b60006020820190506144186000830184613a07565b92915050565b60006060820190506144336000830186613a07565b6144406020830185613a07565b61444d60408301846143f4565b949350505050565b600060408201905061446a6000830185613a07565b61447760208301846143f4565b9392505050565b60006020820190506144936000830184613a16565b92915050565b600060208201905081810360008301526144b38184613a25565b905092915050565b600060208201905081810360008301526144d481613a5e565b9050919050565b600060208201905081810360008301526144f481613ac4565b9050919050565b6000602082019050818103600083015261451481613b2a565b9050919050565b6000602082019050818103600083015261453481613b6a565b9050919050565b6000602082019050818103600083015261455481613baa565b9050919050565b6000602082019050818103600083015261457481613bea565b9050919050565b6000602082019050818103600083015261459481613c2a565b9050919050565b600060208201905081810360008301526145b481613c6a565b9050919050565b600060208201905081810360008301526145d481613caa565b9050919050565b600060208201905081810360008301526145f481613cea565b9050919050565b6000602082019050818103600083015261461481613d2a565b9050919050565b6000602082019050818103600083015261463481613d6a565b9050919050565b6000602082019050818103600083015261465481613daa565b9050919050565b6000602082019050818103600083015261467481613dea565b9050919050565b6000602082019050818103600083015261469481613e2a565b9050919050565b600060208201905081810360008301526146b481613e90565b9050919050565b600060208201905081810360008301526146d481613ed0565b9050919050565b600060208201905081810360008301526146f481613f10565b9050919050565b6000602082019050818103600083015261471481613f76565b9050919050565b6000602082019050818103600083015261473481613fdc565b9050919050565b600060208201905081810360008301526147548161401c565b9050919050565b600060208201905081810360008301526147748161405c565b9050919050565b600060208201905081810360008301526147948161409c565b9050919050565b600060208201905081810360008301526147b481614102565b9050919050565b600060208201905081810360008301526147d481614142565b9050919050565b600060208201905081810360008301526147f481614182565b9050919050565b60006020820190508181036000830152614814816141c2565b9050919050565b6000602082019050818103600083015261483481614202565b9050919050565b6000602082019050818103600083015261485481614268565b9050919050565b60006020820190508181036000830152614874816142ce565b9050919050565b600060208201905081810360008301526148948161430e565b9050919050565b600060208201905081810360008301526148b481614374565b9050919050565b600060208201905081810360008301526148d4816143b4565b9050919050565b60006020820190506148f060008301846143f4565b92915050565b600081519050919050565b600082825260208201905092915050565b600061491d826149ec565b9150614928836149ec565b9250827fffffffffffffffffffffffffffffffffffffffffffffffffffffffffffffffff0382111561495d5761495c614a5b565b5b828201905092915050565b6000614973826149ec565b915061497e836149ec565b92508282101561499157614990614a5b565b5b828203905092915050565b60006149a7826149cc565b9050919050565b60006149b9826149cc565b9050919050565b60008115159050919050565b600073ffffffffffffffffffffffffffffffffffffffff82169050919050565b6000819050919050565b60005b83811015614a145780820151818401526020810190506149f9565b83811115614a23576000848401525b50505050565b60006002820490506001821680614a4157607f821691505b60208210811415614a5557614a54614a8a565b5b50919050565b7f4e487b7100000000000000000000000000000000000000000000000000000000600052601160045260246000fd5b7f4e487b7100000000000000000000000000000000000000000000000000000000600052602260045260246000fd5b6000601f19601f8301169050919050565b614ad38161499c565b8114614ade57600080fd5b50565b614aea816149ae565b8114614af557600080fd5b50565b614b01816149ec565b8114614b0c57600080fd5b5056fea26469706673582212208cc19a0b9b7e8165fe3b18fc137a018f99d0db50308722b010dfec498464f57e64736f6c63430008000033",
  "immutableReferences": {},
  "source": "// SPDX-License-Identifier: MIT\r\n\r\npragma solidity ^0.8.0;\r\n\r\n\r\n\r\n\r\nlibrary SafeMath {\r\n    \r\n    function tryAdd(uint256 a, uint256 b) internal pure returns (bool, uint256) {\r\n        unchecked {\r\n            uint256 c = a + b;\r\n            if (c < a) return (false, 0);\r\n            return (true, c);\r\n        }\r\n    }\r\n\r\n    function trySub(uint256 a, uint256 b) internal pure returns (bool, uint256) {\r\n        unchecked {\r\n            if (b > a) return (false, 0);\r\n            return (true, a - b);\r\n        }\r\n    }\r\n\r\n    function tryMul(uint256 a, uint256 b) internal pure returns (bool, uint256) {\r\n        unchecked {\r\n            if (a == 0) return (true, 0);\r\n            uint256 c = a * b;\r\n            if (c / a != b) return (false, 0);\r\n            return (true, c);\r\n        }\r\n    }\r\n\r\n    function tryDiv(uint256 a, uint256 b) internal pure returns (bool, uint256) {\r\n        unchecked {\r\n            if (b == 0) return (false, 0);\r\n            return (true, a / b);\r\n        }\r\n    }\r\n\r\n    function tryMod(uint256 a, uint256 b) internal pure returns (bool, uint256) {\r\n        unchecked {\r\n            if (b == 0) return (false, 0);\r\n            return (true, a % b);\r\n        }\r\n    }\r\n\r\n    function add(uint256 a, uint256 b) internal pure returns (uint256) {\r\n        return a + b;\r\n    }\r\n\r\n    function sub(uint256 a, uint256 b) internal pure returns (uint256) {\r\n        return a - b;\r\n    }\r\n\r\n    function mul(uint256 a, uint256 b) internal pure returns (uint256) {\r\n        return a * b;\r\n    }\r\n\r\n    function div(uint256 a, uint256 b) internal pure returns (uint256) {\r\n        return a / b;\r\n    }\r\n\r\n    function mod(uint256 a, uint256 b) internal pure returns (uint256) {\r\n        return a % b;\r\n    }\r\n\r\n    function sub(uint256 a, uint256 b, string memory errorMessage) internal pure returns (uint256) {\r\n        unchecked {\r\n            require(b <= a, errorMessage);\r\n            return a - b;\r\n        }\r\n    }\r\n\r\n    function div(uint256 a, uint256 b, string memory errorMessage) internal pure returns (uint256) {\r\n        unchecked {\r\n            require(b > 0, errorMessage);\r\n            return a / b;\r\n        }\r\n    }\r\n\r\n    function mod(uint256 a, uint256 b, string memory errorMessage) internal pure returns (uint256) {\r\n        unchecked {\r\n            require(b > 0, errorMessage);\r\n            return a % b;\r\n        }\r\n    }\r\n}\r\n\r\ncontract ERC20{\r\n\r\n  using SafeMath for uint256;\r\n  \r\n\r\n  string public name=\"HDA Token\";\r\n  string public asset=\"Reals Estate\";\r\n  uint256 public totalSupply=400000;\r\n  uint256  public decimals = 18;\r\n  address public issuer;\r\n  address public registrar;\r\n \r\n\r\n//Declaring events to emit on blockchain\r\n  event IssuerTransferred (address indexed oldIssuer, address indexed newIssuer);\r\n  event RegistrarTransferred (address indexed oldRegistrar, address indexed newRegistrar);\r\n  event Burn (address from, uint256 value);\r\n  event Transfer (address from, address to, uint256 amount);\r\n  event AddedToWhitelist (address holder);\r\n  event RemovedFromWhitelist (address holder);\r\n  event Approval(address indexed owner, address indexed spender, uint256 value);\r\n\r\n  mapping (address => uint256)  public _balances;\r\n  mapping (address => mapping (address => uint256))  public _allowed;\r\n\r\n  bool  public paused = false;\r\n\r\n   constructor() {\r\n    \r\n\r\n      issuer  = 0x26CD813fc0693f0b8dc80ea0aDD164466f6c9592;  //<------------ Test\r\n      registrar = 0xbC3C65D2974CAD92F547ECCeF24b1b50107a0a86;\r\n      addToWhitelist(issuer);\r\n      addToWhitelist(registrar);\r\n      //transfering all tokens into issuer/owner's wallet\r\n      _balances[issuer] = totalSupply;\r\n             paused=true;\r\n     \r\n}\r\n\r\nmodifier onlyIssuerOrRegistrar {\r\n  require(msg.sender == issuer || msg.sender == registrar, \"only valid for issuer or registrar\");\r\n  _;\r\n  }\r\n      \r\nmodifier onlyIssuer {\r\n  require(msg.sender == issuer, \"only valid for issuer\");\r\n  _;\r\n  }\r\n\r\nmodifier onlyRegistrar {\r\n  require(msg.sender == registrar, \"only valid for issuer\");\r\n  _;\r\n}\r\nfunction checkBalanceforIsuuerorRegisterar(address _address) onlyIssuerOrRegistrar public view returns(uint256){\r\n    require(_address!=address(0),\"Null Address\");\r\n    return _balances[_address];\r\n    }\r\n\r\nfunction checkBalance() public view returns(uint256){\r\n    return _balances[msg.sender];\r\n}\r\n\r\nfunction pauseContract() public onlyIssuerOrRegistrar returns(bool){\r\n  require(!paused, \"Contract already paused !\");  \r\n  paused=true;\r\n    return true;\r\n}\r\n\r\nfunction unpauseContract() public onlyIssuerOrRegistrar returns(bool){\r\n  require(paused, \"Contract already unpaused !\");\r\n  paused=false;\r\n    return true;\r\n}\r\n\r\nfunction isPaused() public view returns(bool){\r\n    return paused;\r\n}\r\n\r\n\r\n\r\nfunction newIssuer(address payable _newIssuer) public onlyIssuerOrRegistrar {\r\n  require(_newIssuer != address(0),\"Issuer can't be Null address\");\r\n  require(_newIssuer!=issuer,\"New issuer address and issuer should be same\");\r\n  removeFromWhitelist(issuer);\r\n  issuer = _newIssuer;\r\n  emit IssuerTransferred(issuer, _newIssuer);\r\n  addToWhitelist(_newIssuer);\r\n\r\n}\r\n\r\nfunction newRegistrar(address payable _newRegistrar) public onlyIssuerOrRegistrar  {\r\n  require(_newRegistrar!=address(0),\"Address should be valid\");\r\n  require(_newRegistrar!=registrar,\"Should be new Registrar\");\r\n  removeFromWhitelist(registrar);\r\n  emit RegistrarTransferred(registrar, _newRegistrar);\r\n  registrar = _newRegistrar;\r\n  addToWhitelist(_newRegistrar);\r\n}\r\n\r\n\r\n\r\nfunction customerAllowance(address reciever) public view returns (uint256) {    //returns the allowance limit of customer wallet \r\n    require(reciever!=address(0),\"Address should be valid\");\r\n    require(isWhitelisted(msg.sender), \"Holder needs to be whitelisted by registrar or issuer\");\r\n    require(isWhitelisted(reciever), \"Reciever needs to be whitelisted by registrar or issuer\");\r\n    return _allowed[msg.sender][reciever];\r\n  }\r\n\r\n  function increaseAllowance( address sender, address reciever,uint256 addedValue) public onlyIssuerOrRegistrar returns (bool){ \r\n    require(sender != address(0),\"sender:  incorrect input\");\r\n    require(reciever != address(0),\"reciever:  incorrect input\");\r\n    require(addedValue>0,\"addedValue : incorrect input\");\r\n    _allowed[sender][reciever] = (_allowed[sender][reciever].add(addedValue));\r\n    emit Approval(sender, reciever, _allowed[sender][reciever]);\r\n    return true;\r\n  }\r\n\r\n  function decreaseAllowance(address sender, address reciever,uint256 subtractedValue) public onlyIssuerOrRegistrar returns (bool){ \r\n    require(sender != address(0),\"sender:  incorrect input\");\r\n    require(reciever != address(0),\"reciever:  incorrect input\");\r\n     require(subtractedValue>0,\" subtractedValue : incorrect input\");\r\n    _allowed[sender][reciever] = (\r\n      _allowed[sender][reciever].sub(subtractedValue));\r\n    emit Approval(sender, reciever, _allowed[sender][reciever]);\r\n    return true;\r\n  }\r\n\r\nfunction allowanceOf(address from, address to) onlyIssuerOrRegistrar public view returns (uint256) {    //returns the allowance limit for every wallet\r\n    require(from!=address(0),\"from : address should be valid\");\r\n    require(to!=address(0),\"to : address should be valid\");\r\n    return _allowed[from][to];\r\n  }\r\n\r\n\r\nfunction transferTokenAsIssuer(address from, address to, uint256 value) public onlyIssuerOrRegistrar returns (bool) {    \r\n    require(value>0,\"Value : incorrect value\");\r\n    require(value <= _balances[from]);\r\n    require(value <= _allowed[from][to]);                   \r\n    require(to != address(0));\r\n    //require(!paused, \"public transfer is paused\");  -- should stay outcommented:  before kill, all token should be transfered to issuer wallet \r\n    require(isWhitelisted(from), \"Holder needs to be whitelisted by registrar or issuer\");\r\n    require(isWhitelisted(to), \"Reciever needs to be whitelisted by registrar or issuer\");\r\n    require(value <= totalSupply, \"Value bigger than Totalsupply\");\r\n    \r\n    _balances[from] = _balances[from].sub(value);\r\n    _balances[to] = _balances[to].add(value);\r\n\r\n    require( _allowed[from][to] > 0 ,\"allowance is not defined\");\r\n    _allowed[from][to] = _allowed[from][to].sub(value);   //issuer/registrar is allowed to transfer token at everytime\r\n    emit Transfer(from, to, value);\r\n    return true;\r\n  }\r\n\r\n    function transferForCustomer (address _to,uint _value) public returns(bool){\r\n    require(_to != address(0));\r\n    require(_value>0,\"_value : should be valid\");\r\n    require(!paused, \"public transfer is paused\");\r\n    require(isWhitelisted(msg.sender), \"Sender needs to be whitelisted by registrar or issuer\");\r\n    require(_value <= _balances[msg.sender],\"Balance should be greater\");\r\n    require(isWhitelisted(_to), \"Reciever needs to be whitelisted by registrar or issuer\");\r\n    require(_value <= totalSupply, \"overflow protection\");\r\n    require(_value <= _balances[issuer], \"not enough balance\");\r\n    _balances[_to] += _value;\r\n    _balances[msg.sender] -= _value;\r\n    require(_allowed[msg.sender][_to] > 0,\"allowance is not defined\");\r\n    _allowed[msg.sender][_to]  -= _value;   \r\n    emit Transfer(issuer, _to, _value);\r\n    return true;\r\n    }\r\n   \r\n\r\n\r\n  function burn(uint256 amount) public onlyIssuerOrRegistrar returns (bool) {\r\n    require(amount > 0,\"amount : should be valid\");\r\n    require(amount <= _balances[issuer], \"not enough balance in issuer wallet to burn\");  \r\n    totalSupply -= amount;\r\n    _balances[issuer]=_balances[issuer].sub(amount); // Verbrannten Token werden vom Konto des Issuers verbrannt\r\n    emit Burn(msg.sender, amount);\r\n    return true;\r\n}\r\n\r\nfunction mint(uint256 _token) public onlyIssuerOrRegistrar returns (bool) { //creates new Token\r\n  require(_token>0,\"token: should valid\");\r\n  totalSupply += _token;\r\n  _balances[issuer] += _token;\r\n  return true;\r\n}\r\n\r\n  \r\n  function transferFromIssuer(address _to, uint256 _value) public onlyIssuer returns (bool success) //no allowance Check needed, because  onlyIssuer/Registrar\r\n{\r\n    require(_to != address(0));\r\n    require(_value>0,\"_value : should be valid\");\r\n    require(!paused, \"public transfer is paused\");\r\n    require(isWhitelisted(_to), \"Reciever needs to be whitelisted by registrar or issuer\");\r\n    require(_value <= totalSupply, \"overflow protection\");\r\n    require(_value <= _balances[issuer], \"not enough balance\");\r\n    _balances[_to] += _value;\r\n    _balances[issuer] -= _value;\r\n    emit Transfer(issuer, _to, _value);\r\n    \r\n    return true;\r\n}\r\n\r\n\r\nfunction addToWhitelist(address verifiedAddress) public onlyIssuerOrRegistrar returns (bool success) {\r\n  require(verifiedAddress!=address(0),\"verifedAddress should be valid\");\r\n  whitelist[verifiedAddress] = true;\r\n  return true;\r\n}\r\nmapping (address => bool) public whitelist ;\r\n\r\nfunction removeFromWhitelist(address _customer) public onlyIssuerOrRegistrar returns (bool success) {\r\n    require(_customer!=address(0),\"_customer : address should be valid\");\r\n    require(whitelist[_customer] == true, \"Address is not in your whitelist\");\r\n  whitelist[_customer] = false;\r\n  return true;\r\n}\r\n\r\nfunction isWhitelisted(address _address) public view returns (bool) {\r\n  require(_address!=address(0),\"_address : address should be valid\");\r\n  return whitelist[_address];\r\n}\r\n\r\nfunction kill() public onlyIssuer {\r\n  burn(totalSupply);\r\n  selfdestruct(payable(issuer));\r\n}\r\n\r\n\r\n}",
  "sourcePath": "C:\\Users\\danie\\OneDrive\\Desktop\\ERC-20-Token\\contracts\\ERC20.sol",
  "compiler": {
    "name": "solc",
    "version": "0.8.0+commit.c7dfd78e.Emscripten.clang"
  },
  "schemaVersion": "3.4.10",
  "updatedAt": "2022-11-23T15:17:01.638Z",
  "devdoc": {
    "kind": "dev",
    "methods": {},
    "version": 1
  },
  "userdoc": {
    "kind": "user",
    "methods": {},
    "version": 1
  }
}